{
  "contractName": "CampaignFactory",
  "abi": [
    {
      "constant": true,
      "inputs": [
        {
          "name": "",
          "type": "uint256"
        }
      ],
      "name": "deployedFoodCampaigns",
      "outputs": [
        {
          "name": "",
          "type": "address"
        }
      ],
      "payable": false,
      "stateMutability": "view",
      "type": "function"
    },
    {
      "constant": true,
      "inputs": [],
      "name": "foodForAllCampaignMasterCopy",
      "outputs": [
        {
          "name": "",
          "type": "address"
        }
      ],
      "payable": false,
      "stateMutability": "view",
      "type": "function"
    },
    {
      "inputs": [
        {
          "name": "_campaignMasterCopy",
          "type": "address"
        }
      ],
      "payable": false,
      "stateMutability": "nonpayable",
      "type": "constructor"
    },
    {
      "anonymous": false,
      "inputs": [
        {
          "indexed": true,
          "name": "creator",
          "type": "address"
        },
        {
          "indexed": true,
          "name": "zipcode",
          "type": "string"
        },
        {
          "indexed": false,
          "name": "newCampaignProxyAddr",
          "type": "address"
        },
        {
          "indexed": false,
          "name": "quantity",
          "type": "uint256"
        }
      ],
      "name": "CampaignCreation",
      "type": "event"
    },
    {
      "constant": false,
      "inputs": [
        {
          "name": "_requesterName",
          "type": "string"
        },
        {
          "name": "_quantity",
          "type": "uint256"
        },
        {
          "name": "_date",
          "type": "uint256"
        },
        {
          "name": "_zipcode",
          "type": "string"
        },
        {
          "name": "_locationAddr",
          "type": "string"
        }
      ],
      "name": "foodForAllCreateCampaign",
      "outputs": [
        {
          "name": "newCampaignProxyAddr",
          "type": "address"
        }
      ],
      "payable": false,
      "stateMutability": "nonpayable",
      "type": "function"
    },
    {
      "constant": true,
      "inputs": [],
      "name": "getAllDeployedFoodCampaigns",
      "outputs": [
        {
          "name": "",
          "type": "address[]"
        }
      ],
      "payable": false,
      "stateMutability": "view",
      "type": "function"
    },
    {
      "constant": true,
      "inputs": [],
      "name": "getTotalDeployedFoodCampaigns",
      "outputs": [
        {
          "name": "totalDeployedCampaigns",
          "type": "uint256"
        }
      ],
      "payable": false,
      "stateMutability": "view",
      "type": "function"
    }
  ],
  "bytecode": "0x608060405234801561001057600080fd5b5060405160208061170f83398101806040528101908080519060200190929190505050806000806101000a81548173ffffffffffffffffffffffffffffffffffffffff021916908373ffffffffffffffffffffffffffffffffffffffff1602179055505061168c806100836000396000f30060806040526004361061006d576000357c0100000000000000000000000000000000000000000000000000000000900463ffffffff168063363d356b1461007257806364ae689b146100df5780637200164414610228578063c7dc06961461027f578063fd778d2c146102aa575b600080fd5b34801561007e57600080fd5b5061009d60048036038101908080359060200190929190505050610316565b604051808273ffffffffffffffffffffffffffffffffffffffff1673ffffffffffffffffffffffffffffffffffffffff16815260200191505060405180910390f35b3480156100eb57600080fd5b506101e6600480360381019080803590602001908201803590602001908080601f01602080910402602001604051908101604052809392919081815260200183838082843782019150505050505091929192908035906020019092919080359060200190929190803590602001908201803590602001908080601f0160208091040260200160405190810160405280939291908181526020018383808284378201915050505050509192919290803590602001908201803590602001908080601f0160208091040260200160405190810160405280939291908181526020018383808284378201915050505050509192919290505050610354565b604051808273ffffffffffffffffffffffffffffffffffffffff1673ffffffffffffffffffffffffffffffffffffffff16815260200191505060405180910390f35b34801561023457600080fd5b5061023d6106c3565b604051808273ffffffffffffffffffffffffffffffffffffffff1673ffffffffffffffffffffffffffffffffffffffff16815260200191505060405180910390f35b34801561028b57600080fd5b506102946106e8565b6040518082815260200191505060405180910390f35b3480156102b657600080fd5b506102bf6106f5565b6040518080602001828103825283818151815260200191508051906020019060200280838360005b838110156103025780820151818401526020810190506102e7565b505050509050019250505060405180910390f35b60018181548110151561032557fe5b906000526020600020016000915054906101000a900473ffffffffffffffffffffffffffffffffffffffff1681565b60008060009054906101000a900473ffffffffffffffffffffffffffffffffffffffff16338787878787600180805490500161038e610783565b808973ffffffffffffffffffffffffffffffffffffffff1673ffffffffffffffffffffffffffffffffffffffff1681526020018873ffffffffffffffffffffffffffffffffffffffff1673ffffffffffffffffffffffffffffffffffffffff16815260200180602001878152602001868152602001806020018060200185815260200184810384528a818151815260200191508051906020019080838360005b8381101561044957808201518184015260208101905061042e565b50505050905090810190601f1680156104765780820380516001836020036101000a031916815260200191505b50848103835287818151815260200191508051906020019080838360005b838110156104af578082015181840152602081019050610494565b50505050905090810190601f1680156104dc5780820380516001836020036101000a031916815260200191505b50848103825286818151815260200191508051906020019080838360005b838110156105155780820151818401526020810190506104fa565b50505050905090810190601f1680156105425780820380516001836020036101000a031916815260200191505b509b505050505050505050505050604051809103906000f08015801561056c573d6000803e3d6000fd5b50905060018190806001815401808255809150509060018203906000526020600020016000909192909190916101000a81548173ffffffffffffffffffffffffffffffffffffffff021916908373ffffffffffffffffffffffffffffffffffffffff16021790555050826040518082805190602001908083835b60208310151561060b57805182526020820191506020810190506020830392506105e6565b6001836020036101000a03801982511681845116808217855250505050505090500191505060405180910390203373ffffffffffffffffffffffffffffffffffffffff167fa38393ea1a2eb58826a0d2b77070cbe5d1d0b74d9bba3e914307daf1e8ff70938388604051808373ffffffffffffffffffffffffffffffffffffffff1673ffffffffffffffffffffffffffffffffffffffff1681526020018281526020019250505060405180910390a395945050505050565b6000809054906101000a900473ffffffffffffffffffffffffffffffffffffffff1681565b6000600180549050905090565b6060600180548060200260200160405190810160405280929190818152602001828054801561077957602002820191906000526020600020905b8160009054906101000a900473ffffffffffffffffffffffffffffffffffffffff1673ffffffffffffffffffffffffffffffffffffffff168152602001906001019080831161072f575b5050505050905090565b604051610ecd80610794833901905600608060405234801561001057600080fd5b5060405162000ecd38038062000ecd83398101806040528101908080519060200190929190805190602001909291908051820192919060200180519060200190929190805190602001909291908051820192919060200180518201929190602001805190602001909291905050508760008173ffffffffffffffffffffffffffffffffffffffff16141515156100a557600080fd5b806000806101000a81548173ffffffffffffffffffffffffffffffffffffffff021916908373ffffffffffffffffffffffffffffffffffffffff1602179055505086600160006101000a81548173ffffffffffffffffffffffffffffffffffffffff021916908373ffffffffffffffffffffffffffffffffffffffff160217905550856002908051906020019061013d92919061018e565b508460098190555082600a908051906020019061015b92919061018e565b5081600b908051906020019061017292919061018e565b5083600c8190555080600f819055505050505050505050610233565b828054600181600116156101000203166002900490600052602060002090601f016020900481019282601f106101cf57805160ff19168380011785556101fd565b828001600101855582156101fd579182015b828111156101fc5782518255916020019190600101906101e1565b5b50905061020a919061020e565b5090565b61023091905b8082111561022c576000816000905550600101610214565b5090565b90565b610c8a80620002436000396000f3006080604052600436106100e6576000357c0100000000000000000000000000000000000000000000000000000000900463ffffffff1680630caa4bc21461013457806317fc45e2146101c4578063323046b1146101ef5780633c8abf7d1461021a5780633caabe9e146102715780633cdf644a1461030157806354af014a1461039157806356361f0d146103bc5780636b6dffa7146103e75780637284e4161461043e5780637a910e41146104ce5780639968f9511461055e578063a619486e146105ee578063d424ee7d14610645578063e0490a2e1461069c578063e4177269146106c7575b60008060009054906101000a900473ffffffffffffffffffffffffffffffffffffffff169050366000803760008036600084600019f43d6000803e806000811461012f573d6000f35b3d6000fd5b34801561014057600080fd5b50610149610757565b6040518080602001828103825283818151815260200191508051906020019080838360005b8381101561018957808201518184015260208101905061016e565b50505050905090810190601f1680156101b65780820380516001836020036101000a031916815260200191505b509250505060405180910390f35b3480156101d057600080fd5b506101d96107f5565b6040518082815260200191505060405180910390f35b3480156101fb57600080fd5b506102046107fb565b6040518082815260200191505060405180910390f35b34801561022657600080fd5b5061022f610801565b604051808273ffffffffffffffffffffffffffffffffffffffff1673ffffffffffffffffffffffffffffffffffffffff16815260200191505060405180910390f35b34801561027d57600080fd5b50610286610827565b6040518080602001828103825283818151815260200191508051906020019080838360005b838110156102c65780820151818401526020810190506102ab565b50505050905090810190601f1680156102f35780820380516001836020036101000a031916815260200191505b509250505060405180910390f35b34801561030d57600080fd5b506103166108c5565b6040518080602001828103825283818151815260200191508051906020019080838360005b8381101561035657808201518184015260208101905061033b565b50505050905090810190601f1680156103835780820380516001836020036101000a031916815260200191505b509250505060405180910390f35b34801561039d57600080fd5b506103a6610963565b6040518082815260200191505060405180910390f35b3480156103c857600080fd5b506103d1610969565b6040518082815260200191505060405180910390f35b3480156103f357600080fd5b506103fc61096f565b604051808273ffffffffffffffffffffffffffffffffffffffff1673ffffffffffffffffffffffffffffffffffffffff16815260200191505060405180910390f35b34801561044a57600080fd5b50610453610995565b6040518080602001828103825283818151815260200191508051906020019080838360005b83811015610493578082015181840152602081019050610478565b50505050905090810190601f1680156104c05780820380516001836020036101000a031916815260200191505b509250505060405180910390f35b3480156104da57600080fd5b506104e3610a33565b6040518080602001828103825283818151815260200191508051906020019080838360005b83811015610523578082015181840152602081019050610508565b50505050905090810190601f1680156105505780820380516001836020036101000a031916815260200191505b509250505060405180910390f35b34801561056a57600080fd5b50610573610ad1565b6040518080602001828103825283818151815260200191508051906020019080838360005b838110156105b3578082015181840152602081019050610598565b50505050905090810190601f1680156105e05780820380516001836020036101000a031916815260200191505b509250505060405180910390f35b3480156105fa57600080fd5b50610603610b6f565b604051808273ffffffffffffffffffffffffffffffffffffffff1673ffffffffffffffffffffffffffffffffffffffff16815260200191505060405180910390f35b34801561065157600080fd5b5061065a610b94565b604051808273ffffffffffffffffffffffffffffffffffffffff1673ffffffffffffffffffffffffffffffffffffffff16815260200191505060405180910390f35b3480156106a857600080fd5b506106b1610bba565b6040518082815260200191505060405180910390f35b3480156106d357600080fd5b506106dc610bc0565b6040518080602001828103825283818151815260200191508051906020019080838360005b8381101561071c578082015181840152602081019050610701565b50505050905090810190601f1680156107495780820380516001836020036101000a031916815260200191505b509250505060405180910390f35b600b8054600181600116156101000203166002900480601f0160208091040260200160405190810160405280929190818152602001828054600181600116156101000203166002900480156107ed5780601f106107c2576101008083540402835291602001916107ed565b820191906000526020600020905b8154815290600101906020018083116107d057829003601f168201915b505050505081565b60095481565b600c5481565b600660009054906101000a900473ffffffffffffffffffffffffffffffffffffffff1681565b60028054600181600116156101000203166002900480601f0160208091040260200160405190810160405280929190818152602001828054600181600116156101000203166002900480156108bd5780601f10610892576101008083540402835291602001916108bd565b820191906000526020600020905b8154815290600101906020018083116108a057829003601f168201915b505050505081565b600e8054600181600116156101000203166002900480601f01602080910402602001604051908101604052809291908181526020018280546001816001161561010002031660029004801561095b5780601f106109305761010080835404028352916020019161095b565b820191906000526020600020905b81548152906001019060200180831161093e57829003601f168201915b505050505081565b60055481565b600f5481565b600360009054906101000a900473ffffffffffffffffffffffffffffffffffffffff1681565b600d8054600181600116156101000203166002900480601f016020809104026020016040519081016040528092919081815260200182805460018160011615610100020316600290048015610a2b5780601f10610a0057610100808354040283529160200191610a2b565b820191906000526020600020905b815481529060010190602001808311610a0e57829003601f168201915b505050505081565b60078054600181600116156101000203166002900480601f016020809104026020016040519081016040528092919081815260200182805460018160011615610100020316600290048015610ac95780601f10610a9e57610100808354040283529160200191610ac9565b820191906000526020600020905b815481529060010190602001808311610aac57829003601f168201915b505050505081565b600a8054600181600116156101000203166002900480601f016020809104026020016040519081016040528092919081815260200182805460018160011615610100020316600290048015610b675780601f10610b3c57610100808354040283529160200191610b67565b820191906000526020600020905b815481529060010190602001808311610b4a57829003601f168201915b505050505081565b6000809054906101000a900473ffffffffffffffffffffffffffffffffffffffff1681565b600160009054906101000a900473ffffffffffffffffffffffffffffffffffffffff1681565b60085481565b60048054600181600116156101000203166002900480601f016020809104026020016040519081016040528092919081815260200182805460018160011615610100020316600290048015610c565780601f10610c2b57610100808354040283529160200191610c56565b820191906000526020600020905b815481529060010190602001808311610c3957829003601f168201915b5050505050815600a165627a7a723058203fcf675fc6c274bb074cdd0af9818422394426ed2b639542bf25629b1ec7c5d60029a165627a7a72305820af13ebbe0758a2861b8118bfbe7f3c05e10fec848d826a4e98d23c8b6efe1b800029",
  "source": "pragma solidity ^0.4.24; \n\nimport \"./Campaign.sol\";\n\n//Food for All campaign factory contract - creates food for all contract based on user demand\ncontract CampaignFactory {\n    /*\n     *  Events\n     */\n    event CampaignCreation(address indexed creator, string indexed zipcode,FoodForAllCampaign newCampaignProxyAddr, uint quantity );\n    /*\n     *  Storage\n     */\n    FoodForAllCampaign public foodForAllCampaignMasterCopy;\n    address[] public deployedFoodCampaigns;\n    /*\n     *  Public functions\n     */\n    constructor(FoodForAllCampaign _campaignMasterCopy)\n        public\n    {\n        foodForAllCampaignMasterCopy = _campaignMasterCopy;\n    }\n\n    function foodForAllCreateCampaign(string _requesterName, uint _quantity, uint _date, string _zipcode, string _locationAddr) \n        public returns (FoodForAllCampaign newCampaignProxyAddr) {\n        \n        newCampaignProxyAddr = FoodForAllCampaign(\n            new FoodForAllCampaignProxy (\n            foodForAllCampaignMasterCopy, \n            msg.sender,\n            _requesterName,  \n            _quantity, \n            _date,  \n            _zipcode, \n            _locationAddr,\n            deployedFoodCampaigns.length+1 ));\n        deployedFoodCampaigns.push(newCampaignProxyAddr);\n        emit CampaignCreation(msg.sender, _zipcode, newCampaignProxyAddr, _quantity);\n    }\n\n    function getAllDeployedFoodCampaigns() public view returns (address[]) {\n        return deployedFoodCampaigns;\n    }\n    function getTotalDeployedFoodCampaigns ()  public view returns (uint totalDeployedCampaigns ) {\n        totalDeployedCampaigns = deployedFoodCampaigns.length;\n    }\n\n}\n",
  "sourcePath": "/Users/sijeshp/ConsensysAcademy/Code/Projects/uPortTest/contracts/CampaignFactory.sol",
  "compiler": {
    "name": "solc",
    "version": "0.4.24+commit.e67f0147.Emscripten.clang"
  },
  "schemaVersion": "2.0.0",
  "updatedAt": "2018-07-07T04:34:40.375Z"
}