{
  "contractName": "ProxyData",
  "abi": [
    {
      "constant": true,
      "inputs": [],
      "name": "masterCopy",
      "outputs": [
        {
          "name": "",
          "type": "address"
        }
      ],
      "payable": false,
      "stateMutability": "view",
      "type": "function"
    }
  ],
  "bytecode": "0x608060405234801561001057600080fd5b5060e98061001f6000396000f300608060405260043610603f576000357c0100000000000000000000000000000000000000000000000000000000900463ffffffff168063a619486e146044575b600080fd5b348015604f57600080fd5b5060566098565b604051808273ffffffffffffffffffffffffffffffffffffffff1673ffffffffffffffffffffffffffffffffffffffff16815260200191505060405180910390f35b6000809054906101000a900473ffffffffffffffffffffffffffffffffffffffff16815600a165627a7a72305820f37e35dd18216aaa43636b6a660b42694dacd4b37811d6137ec29dfe85de62060029",
  "source": "pragma solidity ^0.4.24;\n\n// title Proxied - indicates that a contract will be proxied. Also defines storage requirements for Proxy.\n// auther Sijesh - <sijesh.poovalapil at gmail.com>\n// ref : https://blog.gnosis.pm/solidity-delegateproxy-contracts-e09957d0f201\n\n// Proxied -  Generic prixy contract. This is for to keep Proxy-firendly storage layout.\n\ncontract ProxyData {\n    // holds the master copy address\n    address public masterCopy;\n}\n\n// title Proxy - Generic proxy contract to execute proxy for any master contract. \ncontract Proxy is ProxyData {\n    // dev Constructor function sets address of master copy contract.\n    // param _masterCopy Master copy address.\n    constructor(address _masterCopy)\n        public\n    {\n        require(_masterCopy != 0);\n        masterCopy = _masterCopy;\n    }\n\n    // dev Fallback function forwards all transactions and returns all received return data.\n    function ()\n        external\n        payable\n    {\n        \n        address _masterCopy = masterCopy;\n        // Assembly to act proxy . Execute the logic in the master contract with supplied data in the proxy\n        // Using returndatacopy and returndatasize recommended in EIP 211. \n        assembly {\n            calldatacopy(0, 0, calldatasize())\n            let success := delegatecall(not(0), _masterCopy, 0, calldatasize(), 0, 0)\n            returndatacopy(0, 0, returndatasize())\n            switch success\n            case 0 { revert(0, returndatasize()) }\n            default { return(0, returndatasize()) }\n        }\n    }\n\n}",
  "sourcePath": "/Users/sijeshp/ConsensysAcademy/Code/Projects/uPortTest/contracts/Utils/Proxy.sol",
  "compiler": {
    "name": "solc",
    "version": "0.4.24+commit.e67f0147.Emscripten.clang"
  },
  "schemaVersion": "2.0.0",
  "updatedAt": "2018-07-07T04:34:40.376Z"
}